:100000000C9434000C943E000C943E000C943E0082
:100010000C943E000C943E000C943E000C943E0068
:100020000C943E000C943E000C943E000C943E0058
:100030000C943E000C943E000C943E000C943E0048
:100040000C943E000C943E000C943E000C943E0038
:100050000C943E000C943E000C943E000C943E0028
:100060000C943E000C943E0011241FBECFEFD8E04C
:10007000DEBFCDBF0E9444000C9472000C940000BF
:10008000209A219A229A08950E9440002A9A2FEFDE
:1000900083E294EF215080409040E1F700C00000DF
:1000A000299A2FEF81E19AE7215080409040E1F7B3
:1000B00000C00000289A2A9829982FEF83E294EF35
:1000C000215080409040E1F700C00000299A289814
:1000D0002FEF81E19AE7215080409040E1F700C086
:0800E0000000D4CFF894FFCF1B
:00000001FF
