:100000000C9434000C943E000C943E000C943E0082
:100010000C943E000C943E000C943E000C943E0068
:100020000C943E000C943E000C943E000C943E0058
:100030000C943E000C943E000C943E000C943E0048
:100040000C943E000C943E000C943E000C943E0038
:100050000C943E000C943E000C943E000C943E0028
:100060000C943E000C943E0011241FBECFEFD8E04C
:10007000DEBFCDBF0E944D000C946E000C940000BA
:10008000209A219A229A239A249887B5846687BD5C
:10009000789482E080936E0008950E94400080E092
:1000A0000CC095B185B92FEF33ED90E3215030406E
:1000B0009040E1F700C000008F5F8A3090F388E045
:1000C00095B185B92FEF33ED90E32150304090404A
:1000D000E1F700C00000815099F7E3CFF894FFCF1B
:00000001FF
