:100000000C9434000C9451000C9451000C94F800A2
:100010000C9451000C9451000C9451000C9451001C
:100020000C9451000C9451000C9451000C9451000C
:100030000C9451000C9451000C947B000C945100D2
:100040000C9451000C9451000C9451000C945100EC
:100050000C9451000C9451000C9451000C945100DC
:100060000C9451000C94510011241FBECFEFD8E026
:10007000DEBFCDBF11E0A0E0B1E0E8E9F2E002C0F0
:1000800005900D92A430B107D9F711E0A4E0B1E0DA
:1000900001C01D92A131B107E1F70E9447010C9404
:1000A0004A010C94000082E084BD93E095BD99EF75
:1000B00097BD80936E0008952498E8E6F0E0808173
:1000C00081608083EBE6F0E0808180618083089529
:1000D0000E9453000E945C0078940895259808952A
:1000E000209A219A229A239A08950E9470000E94D1
:1000F0006E000C9468001F920F920FB60F9211249D
:100100002F934F935F936F937F938F939F93AF93AF
:10011000BF9380910C0190910D01A0910E01B091BF
:100120000F010196A11DB11D80930C0190930D014B
:10013000A0930E01B0930F018091000190910101F5
:10014000892B09F447C080910C0190910D01A09179
:100150000E01B0910F014091080150910901609189
:100160000A0170910B01841B950BA60BB70B883EFF
:100170009340A105B10570F180910C0190910D01A2
:10018000A0910E01B0910F01809308019093090195
:10019000A0930A01B0930B018091100195B185B92C
:1001A0001D9B0CC0809110018F5F80931001809186
:1001B00010018A3078F0109210010CC0809110016B
:1001C000811103C08AE08093100180911001815059
:1001D00080931001BF91AF919F918F917F916F910B
:1001E0005F914F912F910F900FBE0F901F90189518
:1001F0001F920F920FB60F9211242F934F935F937C
:100200006F937F938F939F93AF93BF9380910C01D4
:1002100090910D01A0910E01B0910F014091040148
:10022000509105016091060170910701841B950BA7
:10023000A60BB70B883E9340A105B105D0F0809185
:100240000C0190910D01A0910E01B0910F018093CE
:10025000040190930501A0930601B09307018091DA
:1002600000019091010121E0822790930101809388
:100270000001BF91AF919F918F917F916F915F919D
:100280004F912F910F900FBE0F901F9018950E94C5
:080290007500FFCFF894FFCFC9
:0402980001000F0052
:00000001FF
